:100000000C9424010C94CB020C9418030C94BB03A5
:100010000C94DF030C9465030C9441010C94410192
:100020000C9441010C9441010C9441010C94410148
:100030000C9441010C9441010C9423020C94410155
:100040000C9441010C9441010C94A2010C944101C7
:100050000C9441010C9419020C9441010C9441013F
:100060000C9441010C944101000000000000005F6D
:1000700000000007000700147F147F14242A7F2A41
:10008000122313086462364955225000050300000C
:10009000001C2241000041221C0014083E081408E4
:1000A000083E0808005030000008080808080060F2
:1000B00060000020100804023E5149453E00427F86
:1000C000400042615149462141454B311814127F8D
:1000D0001027454545393C4A494930017109050316
:1000E0003649494936064949291E0036360000007E
:1000F0005636000008142241001414141414004150
:100100002214080201510906324979413E7E11113B
:10011000117E7F494949363E414141227F4141227A
:100120001C7F494949417F090909013E4149497AF2
:100130007F0808087F00417F41002040413F017F48
:10014000081422417F404040407F020C027F7F0420
:1001500008107F3E4141413E7F090909063E415159
:10016000215E7F09192946464949493101017F012C
:10017000013F4040403F1F2040201F3F4038403F4C
:100180006314081463070870080761514945430068
:100190007F41410002040810200041417F00040219
:1001A0000102044040404040000102040020545439
:1001B00054787F48444438384444442038444448C0
:1001C0007F3854545418087E0901020C5252523E92
:1001D0007F0804047800447D40002040443D007FB7
:1001E0001028440000417F40007C041804787C08FB
:1001F00004047838444444387C1414140808141453
:10020000187C7C080404084854545420043F44409B
:10021000203C4040207C1C2040201C3C4030403C86
:1002200044281028440C5050503C4464544C440022
:100230000836410000007F00000041360800100829
:10024000081008000000000011241FBECFEFD8E006
:10025000DEBFCDBF11E0A0E0B1E0E4EAF2E202C00F
:1002600005900D92A839B107D9F723E0A8E9B1E0CC
:1002700001C01D92A23BB207E1F70E9439080C941D
:1002800050110C940000EF92FF920F931F93CF93A5
:10029000DF93CDB7DEB762970FB6F894DEBF0FBE1F
:1002A000CDBF8B017A010E94040D9A8B898B68E186
:1002B00071E0CE0141960E94250DBC01CE01019650
:1002C0000E941E0D68E171E0CE0141960E94250D4D
:1002D000BC01CE0109960E941E0DCE0101960E941E
:1002E000E60CF80191838083CE0109960E94E60C0A
:1002F0009C01F70191838083F8014081518181E065
:10030000483E534008F080E091E0121613060CF0CE
:1003100090E041E0283E33400CF040E0982321F08B
:10032000442311F081E001C080E062960FB6F8949A
:10033000DEBF0FBECDBFDF91CF911F910F91FF9018
:10034000EF9008951F920F920FB60F9211242F93E2
:100350003F934F935F936F937F938F939F93AF934D
:10036000BF93EF93FF938091C6008A3341F08B33A4
:1003700011F581E080939E0110929D0138C010928A
:100380009E01E0919D01F0E0E95FFE4F10824BEA93
:1003900053E069EA73E087E091E00E944301811134
:1003A00026C086E0EAE1F1E0A7E0B1E001900D921D
:1003B0008A95E1F71CC090919E019923C1F0E091CC
:1003C0009D01E73048F491E09E0F90939D01F0E08D
:1003D000E95FFE4F80830BC010929E0186E0EAE148
:1003E000F1E0A7E0B1E001900D928A95E1F7FF916D
:1003F000EF91BF91AF919F918F917F916F915F919D
:100400004F913F912F910F900FBE0F901F90189515
:100410009093C5008093C40088E98093C10086E072
:100420008093C20087B1826087B987B18E7F87B918
:1004300008951F920F920FB60F9211240F900FBEC6
:100440000F901F9018951F920F920FB60F921124C4
:10045000CF92DF92EF92FF922F933F934F935F9350
:100460006F937F938F939F93AF93BF93EF93FF937C
:100470008091A6019091A701A091A801B091A90136
:100480000196A11DB11D8093A6019093A701A09391
:10049000A801B093A9019BB181E089278BB9C090D5
:1004A000A601D090A701E090A801F090A901C70192
:1004B000B60128EC30E040E050E00E94B00C672B21
:1004C000682B692B19F481E08093AD0160911601CE
:1004D00070E085E09DE00E949C0C9B01770F440B2F
:1004E000550BC701B6010E94B00C672B682B692B16
:1004F00019F481E080931701C701B60126E930E0C5
:1005000040E050E00E94B00C672B682B692B41F44F
:1005100081E08093AC01EAE7F0E08081886080832D
:10052000C090A601D090A701E090A801F090A90189
:10053000C701B60128EE33E040E050E00E94B00C65
:10054000672B682B692B19F481E08093AD03C701F9
:10055000B60124EC39E040E050E00E94B00C672B7B
:10056000682B692B19F481E08093A803FF91EF9128
:10057000BF91AF919F918F917F916F915F914F91BB
:100580003F912F91FF90EF90DF90CF900F900FBE93
:100590000F901F9018951F920F920FB60F92112473
:1005A0002F938F939F938091A0019091A10184300C
:1005B000910589F08630910519F0029789F526C0DA
:1005C000809111018F5F80931101893048F188E09B
:1005D0008093110125C08091A201843618F4865FB2
:1005E0008093A2018091A2019DEC899F812D11240D
:1005F00086958695869528EC829FC00111248053AC
:10060000984F90938B0080938A000AC080911601C6
:100610008F5F809316018F3118F08EE18093160161
:100620009F918F912F910F900FBE0F901F90189553
:100630001F920F920FB60F9211242F938F939F93B7
:100640008091A0019091A1018430910589F08630BC
:10065000910519F0029789F526C08091110181500A
:1006600080931101811129C081E08093110125C07F
:100670008091A201882319F08A508093A201809171
:10068000A2019DEC899F812D1124869586958695E2
:1006900028EC829FC00111248053984F90938B00C7
:1006A00080938A000AC080911601815080931601C0
:1006B000853018F485E0809316019F918F912F91DA
:1006C0000F900FBE0F901F9018951F920F920FB6AC
:1006D0000F921124CF92DF92EF92FF922F933F93CC
:1006E0004F935F936F937F938F939F93AF93BF933A
:1006F000EF93FF93C090A601D090A701E090A801CE
:10070000F090A9018091990190919A01A0919B018B
:10071000B0919C01A7019601281B390B4A0B5B0B7A
:10072000220F331F441F551F60E67AEE80E090E0F1
:100730000E94B00C3093AB012093AA01C0929901A2
:10074000D0929A01E0929B01F0929C01FF91EF916F
:10075000BF91AF919F918F917F916F915F914F91D9
:100760003F912F91FF90EF90DF90CF900F900FBEB1
:100770000F901F9018951F920F920FB60F92112491
:100780008F939F938091A0019091A1018930910551
:1007900028F401969093A1018093A0018091A0017B
:1007A0009091A101099720F01092A1011092A0014F
:1007B0009F918F910F900FBE0F901F9018951F92D1
:1007C0000F920FB60F9211248F938091A501833061
:1007D00018F48F5F8093A5018091A501833010F0FC
:1007E0001092A5018F910F900FBE0F901F9018953A
:1007F0008F929F92AF92BF92CF92DF92EF92FF9231
:100800001F93CF93DF93EC01142F862F90E0019676
:1008100026E1289FB001299F700D1124072E000C9E
:10082000880B990B0E946E0B20E030E044E353E408
:100830000E94CB0A20E030E04AEF54E40E94230CEF
:100840006B017C018881882309F45EC0112309F4BF
:1008500057C080910601882329F18BB18F778BB91E
:10086000E8E8F0E08081918186509F4F91838083FA
:100870006081718180E090E00E946C0B4B015C0113
:1008800020E030E04AEF54E4C701B6010E945A0A62
:100890009B01AC01C501B4010E941E0C181614F492
:1008A000109206018091060181112EC0809188006E
:1008B00090918900803D974040F0E8E8F0E0808129
:1008C00091818A5F910991838083809188009091C2
:1008D0008900803D974019F48BB180688BB9809175
:1008E000880090918900803D974070F481E080936A
:1008F000060180ED97E0909389008093880004C002
:1009000010928900109288001882DF91CF911F9178
:10091000FF90EF90DF90CF90BF90AF909F908F901F
:100920000895623089F4FC012081222369F020912E
:100930001001222319F0255020931001209110015D
:10094000211102C010921001611112C0FC0120811E
:10095000222371F020911001243618F42E5F209389
:10096000100120911001243618F024E62093100184
:10097000FC01108208955F926F927F928F929F92F6
:10098000AF92BF92CF92DF92EF92FF920F931F939D
:10099000CF93DF93CDB7DEB7A5970FB6F894DEBF40
:1009A0000FBECDBF3C01522EB32EEAA2FBA20CA378
:1009B0001DA3F9AC1F924F9300E211E01F930F9318
:1009C000CE0101969F938F930E94450DBF925F9237
:1009D0001F930F93CE0104969F938F930E94450D12
:1009E00020E030E040E251E46AA17BA18CA19DA10E
:1009F0000E94230C0E943D0B7F936F931F930F93D4
:100A0000CE0108969F938F930E94450D8B858C870E
:100A10008A858B8783E291E08A87DF92CF921F934A
:100A20000F93CE010D969F938F930E94450D1F92B9
:100A3000AF921F930F93CE0140969F938F930E9486
:100A4000450D1F9288AD8F931F930F93CE0144964F
:100A50009F938F930E94450D0FB6F894DEBF0FBE93
:100A6000CDBF1F92FF921F930F93CE0146969F9387
:100A70008F930E94450D1F928AAD8F931F930F9302
:100A8000CE014A969F938F930E94450D1F928BAD86
:100A90008F931F930F93CE014E969F938F930E9437
:100AA000450DF30180810FB6F894DEBF0FBECDBFB8
:100AB000882309F436C2FF2009F42EC281E00E9487
:100AC000710934E08316910409F4EEC048F48114EE
:100AD000910489F092E08916910409F486C01FC23E
:100AE000E6E08E16910409F43EC1F8E08F169104F9
:100AF00009F498C114C20E945A0960E080E00E9483
:100B00003B0A61E085E291E00E942A0A69E080E008
:100B10000E943B0A61E083E391E00E942A0A69E0B7
:100B20008DE00E943B0A61E0CE0104960E942A0AF1
:100B300069E088E20E943B0A61E086E391E00E945E
:100B40002A0A62E180E00E943B0A61E083E391E0CF
:100B50000E942A0A62E18DE00E943B0A61E0CE0118
:100B600008960E942A0A62E18DE20E943B0A61E037
:100B70008AE391E00E942A0A6BE180E00E943B0A2E
:100B800061E083E391E00E942A0A6BE18DE00E941C
:100B90003B0A61E0CE010D960E942A0A6BE183E2D6
:100BA0000E943B0A61E08CE391E00E942A0A64E221
:100BB00080E00E943B0A61E083E391E00E942A0A00
:100BC00064E28DE00E943B0A61E08FA990E00E9400
:100BD0002A0A64E288E20E943B0A61E082E491E032
:100BE0000E942A0A0E94400A9AC10E945A0960E0A3
:100BF00080E00E943B0A61E087E491E00E942A0ABB
:100C00006AE080E00E943B0A61E083E391E00E9499
:100C10002A0A6AE08EE00E943B0A61E0CE0101965A
:100C20000E942A0A6AE08BE10E943B0A61E082E5A9
:100C300091E00E942A0A64E180E00E943B0A61E0A0
:100C400083E391E00E942A0A64E18EE00E943B0A5D
:100C500061E0CE0140960E942A0A64E184E20E948B
:100C60003B0A61E08CE591E00E942A0A6EE180E097
:100C70000E943B0A61E083E391E00E942A0A6EE150
:100C80008EE00E943B0A61E0CE0144960E942A0A4F
:100C90006EE180E20E943B0A61E081E791E00E9400
:100CA0002A0A0E94400A3BC10E945A0960E080E083
:100CB0000E943B0A61E087E491E00E942A0A6AE010
:100CC00080E00E943B0A61E083E391E00E942A0AEF
:100CD0006AE08EE00E943B0A61E0CE0101960E942C
:100CE0002A0A6AE089E10E943B0A61E081E691E01C
:100CF0000E942A0A64E180E00E943B0A61E083E3EB
:100D000091E00E942A0A64E18EE00E943B0A61E0C1
:100D1000CE0140960E942A0A64E184E20E943B0AC6
:100D200061E08BE691E00E942A0A6EE180E00E9479
:100D30003B0A61E083E391E00E942A0A6EE18EE0C3
:100D40000E943B0A61E0CE0144960E942A0A6EE1AD
:100D500080E20E943B0A61E081E791E00E942A0A5A
:100D60000E94400ADCC00E945A0960E080E00E94B4
:100D70003B0A61E087E491E00E942A0A6AE080E091
:100D80000E943B0A61E083E391E00E942A0A6AE044
:100D90008EE00E943B0A61E0CE0101960E942A0A81
:100DA0006AE089E10E943B0A61E081E691E00E94ED
:100DB0002A0A64E180E00E943B0A61E083E391E05B
:100DC0000E942A0A64E18EE00E943B0A61E0CE01A3
:100DD00040960E942A0A64E184E20E943B0A61E094
:100DE0008DE591E00E942A0A6EE180E00E943B0AB4
:100DF00061E083E391E00E942A0A6EE18EE00E94A6
:100E00003B0A61E0CE0144960E942A0A6EE180E22C
:100E10000E943B0A61E080E791E00E942A0A0E945A
:100E2000400A7DC00E945A0960E088E00E943B0AA7
:100E300061E085E791E00E942A0A6FE080E00E946D
:100E40003B0A61E083E391E00E942A0A6FE08DE3B0
:100E50000E943B0A61E0CE0146960E942A0A6FE09A
:100E60008FE40E943B0A61E08DE791E00E942A0A2C
:100E70006FE08EE00E943B0A61E08FE791E00E9404
:100E80002A0A69E180E00E943B0A61E083E391E085
:100E90000E942A0A69E18DE30E943B0A61E0CE01CB
:100EA0004A960E942A0A69E18FE40E943B0A61E0A7
:100EB0008DE791E00E942A0A69E18EE00E943B0AD8
:100EC00061E087E891E00E942A0A63E280E00E94E4
:100ED0003B0A61E083E391E00E942A0A63E28DE32A
:100EE0000E943B0A61E0CE014E960E942A0A63E20C
:100EF0008FE40E943B0A61E08DE791E00E942A0A9C
:100F000063E28EE00E943B0A61E08FE891E00E947C
:100F10002A0A0E94400A03C080E00E947109F3017E
:100F20001082A5960FB6F894DEBF0FBECDBFDF913D
:100F3000CF911F910F91FF90EF90DF90CF90BF90D6
:100F4000AF909F908F907F906F905F900895CF9219
:100F5000DF92EF92FF92CF93DF93EC018881882399
:100F600009F47FC080919801882319F0813009F13C
:100F700038C0609178007091790080E090E00E9424
:100F80006C0B2AE037ED43EA51E40E94CB0A20E0E3
:100F900030E040E251E40E945A0A609312017093DB
:100FA0001301809314019093150181E480937C00D8
:100FB00026C0609178007091790080E090E00E94F6
:100FC0006C0B2FE632E143E051E40E94CB0A0E9411
:100FD0003D0B7093A4016093A30180E480937C0097
:100FE0000EC010921201109213011092140110926F
:100FF00015018FEF90E09093A4018093A30180915D
:101000009801811104C08F5F8093980102C01092F3
:1010100098018091A3019091A401CC97E0F0C09039
:101020001201D0901301E0901401F090150120E01E
:1010300030E04CE052E4C701B6010E94C60A8823A2
:1010400054F020E030E044E252E4C701B6010E94CF
:101050001E0C18161CF48BB18BB903C08BB18F77A3
:101060008BB91882DF91CF91FF90EF90DF90CF90F6
:10107000089587E690E00E9408028BEF87B981EA25
:101080008AB98FEE8BB904E008B98FEB84B910E40C
:1010900015B98FE39CE9909387008093860082EADC
:1010A000809380008AE18093810080ED97E09093A7
:1010B00089008093880090938B0080938A000E941F
:1010C00002098AE08093690093E09DBB87E08093EA
:1010D000680080E180936D0010936B0000936C00BA
:1010E00082E084BD95BD99EF97BD80936E007894A2
:1010F00010937C0087EE80937A0010927B008FE340
:1011000080937E0020910F0140919F016091A50185
:101110008DEA93E00E9491048CEA91E00E94A70777
:10112000409110016091110187E191E00E94F80364
:101130008090A0019090A101C090A301D090A40143
:10114000E0901201F090130100911401109115012B
:101150002091AA013091AB0180910F018F93809172
:101160009F018F93809110018F93809111018F9334
:1011700087E091E08F93A090A201409116016CEA64
:1011800071E08DEA91E00E94BB040F900F900F90E8
:101190000F900F90B7CF95B19E7F95B9662329F038
:1011A00095B1986095B990E01FC095B1977F95B9BA
:1011B000FACF47E050E0491B5109282F30E002C028
:1011C000359527954A95E2F720FF04C025B12061A7
:1011D00025B903C025B12F7E25B925B1206225B9D7
:1011E00025B12F7D25B99F5F983018F385B18160B7
:1011F00085B9089560E00E94CB08089561E00E94DF
:10120000CB080895CF93DF9384B1816084B984B112
:10121000806884B984B1886084B984B1806184B9FC
:1012200084B1806284B985B1806885B985B18160F7
:1012300085B983EC99E00197F1F700C0000085B112
:101240008F7785B98BE594E40197F1F700C0000032
:1012500085B1806885B985B18E7F85B981E20E94AC
:10126000FA0883E10E94FA0886E00E94FA0882ECFC
:101270000E94FA0880E20E94FA0889E00E94FA08B7
:1012800080E80E94FA0880E40E94FA08C0E0D0E0FA
:1012900004C080E00E94FE082196C83F91E0D90773
:1012A000C0F388E00E94FA088CE00E94FA08DF91FF
:1012B000CF91089580E80E94FA0880E40E94FA081D
:1012C0001092A6031092A70380E090E005C0FC01F5
:1012D000E255FE4F10820196883F21E09207B8F355
:1012E0000895882311F080E201C084E20E94FA0888
:1012F0000895262F26952695269590E034E5239F80
:10130000800D911D1124442379F0677021E030E0B5
:1013100002C0220F331F6A95E2F7FC01E255FE4F2F
:101320008081282B20830895677021E030E002C07F
:10133000220F331F6A95E2F7FC01E255FE4F20951C
:101340008081282320830895EF92FF920F931F93AB
:10135000CF93DF93E82EF62E00E045C02E2D30E02F
:1013600020523109802F6F2D0E94900CF901EE0F51
:10137000FF1FEE0FFF1FE20FF31FE80FF11DE859EB
:10138000FF4FE491812F0E94900CF0E002C0F59590
:10139000E7958A95E2F7E0FF0AC06091A703809184
:1013A000A603610F41E0800F0E94790909C0609196
:1013B000A7038091A603610F40E0800F0E94790986
:1013C0001F5F01C010E0212F30E0CE01880F991F70
:1013D000880F991F880F991F8C1B9D0B28173907A1
:1013E0000CF4BCCF0F5F202F30E0CF2DD0E0CE012A
:1013F000880F991F880F991F8C0F9D1F2817390779
:101400000CF3E6EAF3E08F2D880F880F8F0D9081A3
:10141000890F8F5F8083843570F01092A603E7EA0E
:10142000F3E08F2D880F880F880F982F9F198081E8
:10143000890F8F5F80838091A703803320F0109203
:10144000A6031092A703DF91CF911F910F91FF90F8
:10145000EF9008951F93CF93DF93EC01162F04C0F4
:101460002196612F0E94A40988818111F9CFDF9113
:10147000CF911F9108958093A6036093A7030895C9
:10148000CF93DF9380E80E94FA0880E40E94FA0874
:10149000C0E0D0E007C0FE01E255FE4F80810E940F
:1014A000FE082196C83F81E0D807A8F3DF91CF91CD
:1014B00008955058BB27AA270E94710A0C94E40B88
:1014C0000E94D60B38F00E94DD0B20F039F49F3FCC
:1014D00019F426F40C94D30B0EF4E095E7FB0C946E
:1014E000CD0BE92F0E94F50B58F3BA17620773076B
:1014F0008407950720F079F4A6F50C94170C0EF4E8
:10150000E0950B2EBA2FA02D0B01B90190010C0113
:10151000CA01A0011124FF27591B99F0593F50F42B
:10152000503E68F11A16F040A22F232F342F442783
:10153000585FF3CF469537952795A795F04053957B
:10154000C9F77EF41F16BA0B620B730B840BBAF04B
:101550009150A1F0FF0FBB1F661F771F881FC2F7B6
:101560000EC0BA0F621F731F841F48F487957795CA
:101570006795B795F7959E3F08F0B0CF9395880F84
:1015800008F09927EE0F9795879508950E94A90B6B
:1015900008F481E008950E94DF0A0C94E40B0E9495
:1015A000DD0B58F00E94D60B40F029F45F3F29F084
:1015B0000C94CD0B51110C94180C0C94D30B0E946D
:1015C000F50B68F39923B1F3552391F3951B550B54
:1015D000BB27AA2762177307840738F09F5F5F4F06
:1015E000220F331F441FAA1FA9F335D00E2E3AF045
:1015F000E0E832D091505040E695001CCAF72BD05D
:10160000FE2F29D0660F771F881FBB1F26173707AD
:101610004807AB07B0E809F0BB0B802DBF01FF27DF
:1016200093585F4F3AF09E3F510578F00C94CD0BE4
:101630000C94180C5F3FE4F3983ED4F386957795AD
:101640006795B795F7959F5FC9F7880F911D969598
:10165000879597F90895E1E0660F771F881FBB1FF4
:10166000621773078407BA0720F0621B730B840BA1
:10167000BA0BEE1F88F7E09508950E94FD0B88F0E5
:101680009F5798F0B92F9927B751B0F0E1F0660F46
:10169000771F881F991F1AF0BA95C9F714C0B13087
:1016A00091F00E94170CB1E008950C94170C672F6D
:1016B000782F8827B85F39F0B93FCCF386957795B6
:1016C0006795B395D9F73EF490958095709561959F
:1016D0007F4F8F4F9F4F0895E89409C097FB3EF4CA
:1016E00090958095709561957F4F8F4F9F4F99236F
:1016F000A9F0F92F96E9BB279395F69587957795ED
:101700006795B795F111F8CFFAF4BB0F11F460FFAC
:101710001BC06F5F7F4F8F4F9F4F16C0882311F004
:1017200096E911C0772321F09EE8872F762F05C018
:10173000662371F096E8862F70E060E02AF09A95B3
:10174000660F771F881FDAF7880F9695879597F9A8
:101750000895990F0008550FAA0BE0E8FEEF161642
:101760001706E807F907C0F012161306E407F50795
:1017700098F0621B730B840B950B39F40A2661F009
:10178000232B242B252B21F408950A2609F4A140AC
:10179000A6958FEF811D811D089597F99F6780E8B9
:1017A00070E060E008959FEF80EC089500240A94B3
:1017B0001616170618060906089500240A9412162C
:1017C0001306140605060895092E0394000C11F45F
:1017D000882352F0BB0F40F4BF2B11F460FF04C00C
:1017E0006F5F7F4F8F4F9F4F089557FD9058440F65
:1017F000551F59F05F3F71F04795880F97FB991F70
:1018000061F09F3F79F0879508951216130614062C
:10181000551FF2CF4695F1DF08C0161617061806B9
:10182000991FF1CF86957105610508940895E89494
:10183000BB2766277727CB0197F908950E94A90B4C
:1018400008F48FEF08950E94360C0C94E40B0E946C
:10185000D60B38F00E94DD0B20F0952311F00C948C
:10186000CD0B0C94D30B11240C94180C0E94F50B87
:1018700070F3959FC1F3950F50E0551F629FF001E3
:10188000729FBB27F00DB11D639FAA27F00DB11DFC
:10189000AA1F649F6627B00DA11D661F829F222785
:1018A000B00DA11D621F739FB00DA11D621F839F0C
:1018B000A00D611D221F749F3327A00D611D231FE2
:1018C000849F600D211D822F762F6A2F11249F5730
:1018D00050409AF0F1F088234AF0EE0FFF1FBB1F33
:1018E000661F771F881F91505040A9F79E3F5105F2
:1018F00080F00C94CD0B0C94180C5F3FE4F3983EF1
:10190000D4F3869577956795B795F795E7959F5F9B
:10191000C1F7FE2B880F911D9695879597F908952D
:10192000991B79E004C0991F961708F0961B881F31
:101930007A95C9F78095089597FB072E16F40094C1
:1019400007D077FD09D00E94D20C07FC05D03EF4E9
:10195000909581959F4F0895709561957F4F08955B
:10196000A1E21A2EAA1BBB1BFD010DC0AA1FBB1FA3
:10197000EE1FFF1FA217B307E407F50720F0A21B15
:10198000B30BE40BF50B661F771F881F991F1A9482
:1019900069F760957095809590959B01AC01BD01AC
:1019A000CF010895AA1BBB1B51E107C0AA1FBB1F93
:1019B000A617B70710F0A61BB70B881F991F5A95DB
:1019C000A9F780959095BC01CD010895FC01882769
:1019D0009927E89421912032E9F3293010F02E3034
:1019E000C8F32B3241F02D3239F4689404C00E94C0
:1019F0003D0D820F911D219120532A30C0F31EF41A
:101A0000909581959F4F08950F931F93CF93DF93E8
:101A10008C01FC0101900020E9F7CF01801B910BA4
:101A20000E94480FEC01009719F0B8010E941E0DAA
:101A3000CE01DF91CF911F910F910895FB01DC0141
:101A400001900D920020E1F70895FC01A081B18181
:101A5000AD01109681F03D91FB010190031601103C
:101A6000E1F7C9F7002011F4D00102C01E921196CF
:101A7000FC01A083B183CA0108957AE0979F902D5D
:101A8000879F802D910D11240895AEE0B0E0EBE426
:101A9000FDE00C9427110D891E8986E08C831A8342
:101AA00009838FEF9FE79E838D83AE01475E5F4F73
:101AB0006F89788DCE0101960E94670DEF81F885C0
:101AC000E00FF11F10822E96E4E00C944311ABE07E
:101AD000B0E0EDE6FDE00C9419116C017B018A0188
:101AE000FC0117821682838181FFCCC1CE01019651
:101AF0003C01F6019381F70193FD859193FF81915C
:101B00007F01882309F4BAC1853239F493FD8591A8
:101B100093FF81917F01853229F4B60190E00E9404
:101B20007F10E7CF912C212C312CFFE1F315D8F059
:101B30008B3279F038F4803279F08332A1F4232D9E
:101B400020611DC08D3261F0803369F4232D216046
:101B500016C0832D8260382EE32DE4603E2E2AC00D
:101B6000F32DF8601DC037FC2DC020ED280F2A3062
:101B700040F08E32B9F436FC81C1232D2064322E20
:101B800019C036FE06C08AE0989E200D1124922EC0
:101B900011C0EAE02E9E200D1124222EF32DF062BA
:101BA0003F2E08C08C3621F4832D8068382E02C069
:101BB000883641F4F70193FD859193FF81917F0170
:101BC0008111B3CF982F9F7D9554933028F40C5FEB
:101BD0001F4F9FE399830DC0833631F0833771F037
:101BE000833509F059C021C0F801808189830E5FD7
:101BF0001F4F88248394912C530113C02801F2E0D5
:101C00004F0E511CF801A080B18036FE03C0692D33
:101C100070E002C06FEF7FEFC5010E9474104C01AD
:101C20008201F32DFF773F2E16C0280122E0420EDD
:101C3000511CF801A080B18036FE03C0692D70E010
:101C400002C06FEF7FEFC5010E9469104C01F32DB8
:101C5000F0683F2E820133FC1BC0822D90E0881675
:101C60009906B0F4B60180E290E00E947F102A94B9
:101C7000F4CFF50137FC859137FE81915F01B60104
:101C800090E00E947F1021102A9421E0821A91088E
:101C90008114910471F7E8C0843611F0893641F55A
:101CA000F80137FE07C060817181828193810C5FEA
:101CB0001F4F08C060817181072E000C880B990BA3
:101CC0000E5F1F4FF32DFF763F2E97FF09C09095B3
:101CD0008095709561957F4F8F4F9F4FF0683F2E95
:101CE0002AE030E0A3010E94BB10882E861845C070
:101CF000853731F4232D2F7EB22E2AE030E025C027
:101D0000932D997FB92E8F36C1F018F4883579F06C
:101D1000B5C0803719F0883721F0B0C0E92FE061F5
:101D2000BE2EB4FE0DC0FB2DF460BF2E09C034FEE4
:101D30000AC0292F2660B22E06C028E030E005C078
:101D400020E130E002C020E132E0F801B7FE07C038
:101D500060817181828193810C5F1F4F06C0608119
:101D6000718180E090E00E5F1F4FA3010E94BB10C5
:101D7000882E8618FB2DFF773F2E36FE0DC0232DB3
:101D80002E7FA22E891458F434FE0BC032FC09C0F9
:101D9000832D8E7EA82E05C0B82CA32C03C0B82C92
:101DA00001C0B92CA4FE0FC0FE01E80DF11D808119
:101DB000803321F49A2D997EA92E09C0A2FE06C077
:101DC000B394B39404C08A2D867809F0B394A3FC2D
:101DD00011C0A0FE06C0B21488F4280C922C9B18E7
:101DE0000EC0B21460F4B60180E290E00E947F1051
:101DF000B394F7CFB21418F42B1802C0982C212CEE
:101E0000A4FE10C0B60180E390E00E947F10A2FE05
:101E100017C0A1FC03C088E790E002C088E590E00D
:101E2000B6010CC08A2D867859F0A1FE02C08BE263
:101E300001C080E2A7FC8DE2B60190E00E947F1015
:101E4000891438F4B60180E390E00E947F109A94E0
:101E5000F7CF8A94F301E80DF11D8081B60190E07F
:101E60000E947F108110F5CF222009F442CEB601E6
:101E700080E290E00E947F102A94F6CFF6018681DE
:101E8000978102C08FEF9FEF2B96E2E10C94351102
:101E90000F931F93CF93DF938230910510F482E06C
:101EA00090E0E091B003F091B10320E030E0A0E0D9
:101EB000B0E0309719F140815181028113814817B8
:101EC0005907C8F08417950769F4109731F01296F6
:101ED0000C93129713961C9327C00093B003109392
:101EE000B10322C02115310519F04217530718F428
:101EF0009A01BD01EF01DF01F801DBCF21153105AA
:101F0000F9F0281B390B2430310580F48A819B813C
:101F10006115710521F0FB019383828304C09093C6
:101F2000B1038093B003FE01329644C0FE01E20F7C
:101F3000F31F8193919322503109398328833AC04A
:101F40002091AE033091AF03232B41F42091020185
:101F5000309103013093AF032093AE032091000131
:101F6000309101012115310541F42DB73EB7409163
:101F7000040150910501241B350BE091AE03F09153
:101F8000AF03E217F307A0F42E1B3F0B2817390706
:101F900078F0AC014E5F5F4F2417350748F04E0FC5
:101FA0005F1F5093AF034093AE038193919302C0A0
:101FB000E0E0F0E0CF01DF91CF911F910F91089504
:101FC000CF93DF93009709F481C0FC01329713820D
:101FD0001282A091B003B091B103109781F42081D7
:101FE0003181820F931F2091AE033091AF032817E8
:101FF000390751F5F093AF03E093AE0367C0ED01ED
:1020000020E030E0CE17DF0740F44A815B819E017B
:1020100041155105F1F0EA01F5CFD383C283408128
:102020005181840F951FC817D90759F48881998168
:10203000840F951F0296918380838A819B8193836D
:1020400082832115310529F4F093B103E093B003A5
:102050003DC0E901FB83EA8349915991C40FD51F23
:10206000EC17FD0761F480819181840F951F029622
:10207000E90199838883828193819B838A83E0E04D
:10208000F0E012968D919C911397009719F0FD0145
:10209000DC01F7CF8D919C9111979D012E5F3F4FF1
:1020A000820F931F2091AE033091AF032817390799
:1020B00069F4309729F41092B1031092B00302C072
:1020C00013821282B093AF03A093AE03DF91CF913E
:1020D0000895FC010590615070400110D8F780957B
:1020E00090958E0F9F1F0895FC01615070400190E4
:1020F0000110D8F7809590958E0F9F1F08950F932C
:102100001F93CF93DF93FB01238121FD03C08FEF4A
:102110009FEF2CC022FF16C0468157812481358154
:102120004217530744F4A081B1819D012F5F3F4FB7
:10213000318320838C93268137812F5F3F4F3783F4
:10214000268314C08B01EC01FB010084F185E02D96
:102150000995892BE1F6D80116968D919C911797D8
:10216000019617969C938E931697CE01DF91CF918F
:102170001F910F910895FA01AA27283051F12031BB
:1021800081F1E8946F936E7F6E5F7F4F8F4F9F4F0B
:10219000AF4FB1E03ED0B4E03CD0670F781F891F4D
:1021A0009A1FA11D680F791F8A1F911DA11D6A0F1B
:1021B000711D811D911DA11D20D009F468943F91CE
:1021C0002AE0269F11243019305D3193DEF6CF01CD
:1021D0000895462F4770405D4193B3E00FD0C9F793
:1021E000F6CF462F4F70405D4A3318F0495D31FD00
:1021F0004052419302D0A9F7EACFB4E0A695979553
:10220000879577956795BA95C9F700976105710528
:1022100008959B01AC010A2E069457954795379572
:102220002795BA95C9F7620F731F841F951FA01DCC
:1022300008952F923F924F925F926F927F928F926A
:102240009F92AF92BF92CF92DF92EF92FF920F9345
:102250001F93CF93DF93CDB7DEB7CA1BDB0B0FB64F
:10226000F894DEBF0FBECDBF09942A88398848880C
:102270005F846E847D848C849B84AA84B984C884A2
:10228000DF80EE80FD800C811B81AA81B981CE0F99
:10229000D11D0FB6F894DEBF0FBECDBFED0108957E
:0422A000F894FFCFE0
:1022A4000000B203200001484848784C4C4C0064BC
:1022B40064010000F041050178004552524F2100AD
:1022C4002575002C0053696E616973205669746129
:1022D4006973002D3E0062706D0043002553704FFA
:1022E40032006D6D486700506172616D6574726F84
:1022F40073002A526573702F6D696E002025303289
:102304000020526573702F6D696E002A25303200EB
:102314002A766F6C004D415155494E4100250042CB
:102324006174657269610053756A6569726100441C
:082334006573656D7065000022
:00000001FF
